{
  "contractName": "EIP712Base",
  "abi": [
    {
      "inputs": [
        {
          "internalType": "string",
          "name": "name",
          "type": "string"
        },
        {
          "internalType": "string",
          "name": "version",
          "type": "string"
        },
        {
          "internalType": "uint256",
          "name": "chainid",
          "type": "uint256"
        }
      ],
      "stateMutability": "nonpayable",
      "type": "constructor"
    },
    {
      "inputs": [],
      "name": "getChainID",
      "outputs": [
        {
          "internalType": "uint256",
          "name": "id",
          "type": "uint256"
        }
      ],
      "stateMutability": "view",
      "type": "function"
    },
    {
      "inputs": [
        {
          "internalType": "address",
          "name": "signer",
          "type": "address"
        },
        {
          "internalType": "bytes32",
          "name": "signatureHash",
          "type": "bytes32"
        },
        {
          "internalType": "bytes32",
          "name": "sigR",
          "type": "bytes32"
        },
        {
          "internalType": "bytes32",
          "name": "sigS",
          "type": "bytes32"
        },
        {
          "internalType": "uint8",
          "name": "sigV",
          "type": "uint8"
        }
      ],
      "name": "verify",
      "outputs": [
        {
          "internalType": "bool",
          "name": "",
          "type": "bool"
        }
      ],
      "stateMutability": "pure",
      "type": "function"
    }
  ],
  "bytecode": "0x608060405234801561001057600080fd5b506040516104a13803806104a18339818101604052606081101561003357600080fd5b810190808051604051939291908464010000000082111561005357600080fd5b8382019150602082018581111561006957600080fd5b825186600182028301116401000000008211171561008657600080fd5b8083526020830192505050908051906020019080838360005b838110156100ba57808201518184015260208101905061009f565b50505050905090810190601f1680156100e75780820380516001836020036101000a031916815260200191505b506040526020018051604051939291908464010000000082111561010a57600080fd5b8382019150602082018581111561012057600080fd5b825186600182028301116401000000008211171561013d57600080fd5b8083526020830192505050908051906020019080838360005b83811015610171578082015181840152602081019050610156565b50505050905090810190601f16801561019e5780820380516001836020036101000a031916815260200191505b50604052602001805190602001909291905050508060018190555060405180608001604052806052815260200161044f6052913980519060200120838051906020012083805190602001206101f761027460201b60201c565b30604051602001808681526020018581526020018481526020018381526020018273ffffffffffffffffffffffffffffffffffffffff1673ffffffffffffffffffffffffffffffffffffffff168152602001955050505050506040516020818303038152906040528051906020012060008190555050505061027e565b6000600154905090565b6101c28061028d6000396000f3fe608060405234801561001057600080fd5b50600436106100365760003560e01c8063081678f81461003b578063564b81ef146100c2575b600080fd5b6100a8600480360360a081101561005157600080fd5b81019080803573ffffffffffffffffffffffffffffffffffffffff169060200190929190803590602001909291908035906020019092919080359060200190929190803560ff1690602001909291905050506100e0565b604051808215151515815260200191505060405180910390f35b6100ca610182565b6040518082815260200191505060405180910390f35b600060018583868660405160008152602001604052604051808581526020018460ff1660ff1681526020018381526020018281526020019450505050506020604051602081039080840390855afa15801561013f573d6000803e3d6000fd5b5050506020604051035173ffffffffffffffffffffffffffffffffffffffff168673ffffffffffffffffffffffffffffffffffffffff1614905095945050505050565b600060015490509056fea2646970667358221220a0af1416ec1bc8ce4c007f2fe340ce69359c8aec45a9033fa407a1f864620d2b64736f6c63430006020033454950373132446f6d61696e28737472696e67206e616d652c737472696e672076657273696f6e2c75696e7432353620636861696e49642c6164647265737320766572696679696e67436f6e747261637429",
  "source": "// SPDX-License-Identifier: MIT\npragma solidity ^0.6.0;\n\nimport \"@openzeppelin/contracts/math/SafeMath.sol\";\n\ncontract EIP712Base {\n\n    struct EIP712Domain {\n        string name;\n        string version;\n        uint256 chainId;\n        address verifyingContract;\n    }\n\n    bytes32 internal constant EIP712_DOMAIN_TYPEHASH = keccak256(bytes(\"EIP712Domain(string name,string version,uint256 chainId,address verifyingContract)\"));\n\n    bytes32 internal domainSeperator;\n\n    uint256 private _chainid;\n\n    constructor(string memory name, string memory version, uint256 chainid) public {\n      _chainid = chainid;\n      \n      domainSeperator = keccak256(abi.encode(\n\t\t\tEIP712_DOMAIN_TYPEHASH,\n\t\t\tkeccak256(bytes(name)),\n\t\t\tkeccak256(bytes(version)),\n\t\t\tgetChainID(),\n\t\t\taddress(this)\n\t\t));\n    }\n\n    function getChainID() public view returns (uint256 id) {\n\t\t    return _chainid;\n\t}\n\n    function getDomainSeperator() private view returns(bytes32) {\n\t\treturn domainSeperator;\n\t}\n\n    /**\n    * Accept message hash and returns hash message in EIP712 compatible form\n    * So that it can be used to recover signer from signature signed using EIP712 formatted data\n    * https://eips.ethereum.org/EIPS/eip-712\n    * \"\\\\x19\" makes the encoding deterministic\n    * \"\\\\x01\" is the version byte to make it compatible to EIP-191\n    */\n    function toTypedMessageHash(bytes32 messageHash) internal view returns(bytes32) {\n        return keccak256(abi.encodePacked(\"\\x19\\x01\", getDomainSeperator(), messageHash));\n    }\n\n\n    function verify(\n        address signer,\n        bytes32 signatureHash,\n        bytes32 sigR,\n        bytes32 sigS,\n        uint8 sigV\n    ) public pure returns (bool) {\n        return\n            signer ==\n            ecrecover(\n                signatureHash,\n                sigV,\n                sigR,\n                sigS\n            );\n    }\n\n}\n",
  "sourcePath": "/home/bd/Desktop/prepos/github/ERC865_with_relay/contracts/EIP712Base.sol",
  "compiler": {
    "name": "solc",
    "version": "0.6.2+commit.bacdbe57.Emscripten.clang"
  },
  "schemaVersion": "3.3.1",
  "updatedAt": "2020-10-23T16:02:07.879Z",
  "devdoc": {
    "methods": {}
  },
  "userdoc": {
    "methods": {}
  }
}